:10000000C1C10000E6C10000E4C10000E2C100007F
:10001000E0C10000DEC10000DCC10000DAC1000068
:10002000D8C10000D6C100005FC60000EDC60000C8
:10003000D0C10000CEC10000CCC10000CAC1000088
:10004000C8C10000C6C10000C4C10000C2C1000098
:10005000C0C10000BEC10000BCC100006EC50000F0
:10006000B8C10000B6C10000B4C10000B2C10000B8
:10007000B0C10000AEC10000ACC10000AAC10000C8
:10008000A8C10000A6C10000A4C10000A2C10000D8
:10009000A0C100009EC100009CC100009AC10000E8
:1000A00098C1000096C1000094C100000123022302
:1000B0000423082380230129022904290829402632
:1000C000802640298029102320234023802F402F81
:1000D000202F102F022F012F10292029402C7DFDC9
:1000E0007DFB7DF77DEF7DDF7E7F7EBF7EDF7EEF58
:1000F0007EFD7EFE7DFE0001000000031200020076
:10010000008E017400220000AB025500210000A007
:1001100001090022010078023300210100B9010920
:100120000022020002022100210200D20109002265
:10013000030023025500210300F20109000300001F
:100140008A0104010309044A013E3E03540065008C
:1001500065006E007300790020004B006500790097
:1001600062006F006100720064002F004D006F009C
:100170007500730065002F004A006F00790073005E
:100180007400690063006B000000040309040902A5
:100190007400040100C032090400000103010100E1
:1001A0000921110100012255000705830308000100
:1001B00009040100010301020009211101000122CB
:1001C000330007058403080001090402000203004C
:1001D00000000921110100012221000705810340CF
:1001E00000010705020320000209040300010300C7
:1001F0000000092111010001225500070585030CAB
:10020000000206C9FF0904A15C7508150026FF005D
:100210009540097581029520097691029504097629
:10022000B102C005010904A1011500250175019560
:1002300020050919012920810215002507350046EE
:100240003B017504950165140501093981420501D9
:100250000901A100150026FF03750A95040930095C
:1002600031093209358102C0150026FF03750A9550
:1002700002093609368102C005010902A1010509FA
:1002800019012903150025019503750181029501C6
:10029000750581030501093009311581257F750830
:1002A00095028106093895018106C005010906A15C
:1002B0000175019508050719E029E7150025018159
:1002C000029508750115002501050C09E909EA09DF
:1002D000E209CD09B509B609B709B88102950575D6
:1002E00001050819012905910295017503910395EE
:1002F0000675081500257F05071900297F8100C0B4
:100300001201000200000040C01682040501000135
:10031000000101C13601C02601C10601C10601C1AB
:1003200016002C5E7460616264346667656E362DFB
:100330003738271E1F202122232425267333762EAB
:1003400077785F4445464748494A4B4C4D4E4F509D
:100350005152535455565758595A5B5C5D2F3130A2
:10036000636D350405060708090A0B0C0D0E0F1006
:100370001112131415161718191A1B1C1D6F717002
:10038000752A420B11241FBECFEFDAE0DEBFCDBFCE
:1003900011E0A0E0B1E0EEEDF6E102C005900D92B3
:1003A000A63AB107D9F723E0A6EAB1E001C01D9251
:1003B000A835B207E1F713E0C4E8D3E004C0229700
:1003C000FE010E94690BC238D107C9F7A7D70C9468
:1003D0006D0B16CEDB010D900020E9F7AD01415009
:1003E0005109461B570BDC01ED91FC910280F38112
:1003F000E02D0994CF93DF9340E855E260E070E090
:100400008FE493E00E94A40A64E071E08FE493E03B
:10041000E1DF10923D0310923C0310923B031092D7
:100420003A031092390310923803C6E1D1E0888173
:10043000229618D281E0CA32D807C9F780E123D2C8
:100440008FE021D28EE01FD28DE01DD28CE01BD236
:10045000569ADF91CF9108952F923F924F925F92DB
:100460006F927F928F929F92AF92BF92CF92DF92C4
:10047000EF92FF920F931F93CF93DF93CDB7DEB729
:1004800062970FB6F894DEBF0FBECDBF609000013B
:100490007090010180900201909003016F86788A2C
:1004A000898A9A8A86E191E09E838D8384EDC82EA5
:1004B00082E0D82E98EA292E91E0392EA0E7B2E00A
:1004C000BA83A9838AE291E09C838B8320E030E0A9
:1004D000AD81BE816D917D91BE83AD837727FB0198
:1004E00001D28CE091E09A878987A0E0B0E0E12C0E
:1004F000F12C80E090E000E010E0E985FA85419180
:100500005191FA87E9875527FA017FD2AF01552724
:100510003601680E791E78866F82F301A080B18063
:1005200031016E0C7F1C7C866B864A155B0589F059
:100530000FB6F89440903F03509040036090410301
:10054000709042030FBEEB85FC854082518262822F
:1005500073820FB6F89440903F0350904003609030
:100560004103709042030FBEEB85FC858080918033
:10057000A280B380481859086A087B088F8498883D
:10058000A988BA8884149504A604B70480F0EF8182
:10059000F885518340830F5F1F4F0296F4E0EF0E02
:1005A000F11C54968A30910509F0A7CF61C0A9804B
:1005B000BA80A80EB91EF5018080918048155905B2
:1005C00031F351834083AB80BC80AA0EBB1EF50182
:1005D000A080B18041155105F1F41092A70110924D
:1005E000A601A901662757FD6095762F8FE493E059
:1005F00088D66AE071E08FE493E0ECDEA80166271C
:1006000057FD6095762F8FE493E07BD68FE493E0DF
:1006100002D6C5014BC0FCEFAF16B10431F45093C4
:10062000A7014093A6018CEF40C0E2E0AE16E0E8DF
:10063000BE0631F45093A7014093A60182E00AC0A0
:10064000F1E0AF16F0E8BF0639F45093A7014093EC
:10065000A60181E090E82AC0E4E0AE16E0E8BE061C
:1006600009F095CF5093A7014093A60184E0F2CF03
:10067000FB0132D12F5F3F4FFAE0CF0ED11C84E156
:10068000280E311CA981BA811A96BA83A9838B815D
:100690009C8102969C838B832A30310509F018CF08
:1006A0005093A7014093A60180E090E062960FB6B8
:1006B000F894DEBF0FBECDBFDF91CF911F910F9198
:1006C000FF90EF90DF90CF90BF90AF909F908F9072
:1006D0007F906F905F904F903F902F900895CF93B1
:1006E000DF93BADEEC01009709F469C0AC0160E069
:1006F00070E020E08FE493E0A8D58FE493E08BD501
:10070000CC3FD10509F45BC0C23080E8D80781F442
:1007100080913C0390913D03892B29F4D0933D03B4
:10072000C0933C034CC010923D0310923C0347C061
:10073000C13080E8D80781F480913A0390913B035F
:10074000892B29F4D0933B03C0933A0338C010920D
:100750003B0310923A0333C0C43080E8D80781F4D9
:100760008091380390913903892B29F4D093390370
:10077000C093380324C010923903109238031FC06D
:1007800060913A0380913C03682B80913803682B79
:1007900089E493E026D66C2F89E493E025D689E49A
:1007A00093E025D660E089E493E01BD660E089E41D
:1007B00093E01AD689E493E0DF91CF9118C6DF91D8
:1007C000CF9108951DBA109268001CBC10BE1FBACC
:1007D00010927A0010926E0010926F0010927100C9
:1007E000109272001092C900ECEBF0E0108214B885
:1007F00017B81AB81DB810BA108215B818B81BB8B7
:100800001EB811BA0895F894E1E6F0E020E82083DC
:10081000108283E084BD85BDEEE6F0E080818160DA
:10082000808381E08093800092E0909381008093A8
:100830009000909391009093C00094E09093C10039
:100840008093C2008093C3001092C40086E8809316
:100850007A0020937B0010927E0010927D00E7D1F9
:1008600078940895893170F4ECEAF0E0880FE80F8D
:10087000F11D9591E491F0E02FB7F8948181892BD7
:1008800081832FBF0895893130F5A5EFA80FAC30D3
:1008900048F4EEEDF0E0AA0FEA0FF11DA591B0E0EB
:1008A000959103C09FEFA0E0B0E0ECEAF0E0880F84
:1008B000E80FF11D2591E491F0E03FB7F8944181F4
:1008C000822F8095842381838281822B82838C91E5
:1008D00089238C933FBF0895E93150F4EE0FE75818
:1008E000FB4F0994E93120F4EE0FE555FB4F0994D5
:1008F0000895289A0895299A08952A9A08952B9A76
:1009000008952F9A6AC0589A58C0599A08955A9AC9
:1009100008955B9A0895469A66C0479A6AC05E9A9F
:1009200008955F9A6CC02C9A08952D9A4AC02E9A09
:100930004EC08F9A08958E9A08958D9A08958C9A34
:100940000895899A0895889A08955C9A08955D9A01
:100950000895769A089528980895299808952A98D0
:1009600008952B9808952F9838C0589826C0599804
:1009700008955A9808955B980895469834C047980A
:1009800038C05E9808955F983AC02C9808952D98C5
:1009900018C02E981CC08F9808958E9808958D9831
:1009A00008958C98089589980895889808955C987A
:1009B00008955D98089576980895E4B5EF7DE4BDB7
:1009C0000895E0918000EF77E09380000895E09132
:1009D0008000EF7DE09380000895E0918000E77F44
:1009E000E09380000895E0919000EF77E09390000D
:1009F0000895E091C000EF77E093C0000895E09182
:100A0000C200E77FE093C2000895E93130F4EE0FB1
:100A1000EE0FFF27EF5EFA4F0994EE270895E1E00D
:100A20000895E3B1E170D9F70895E3B1E270B9F741
:100A30000895E3B1E47099F70895E3B1E87079F7A8
:100A40000895E3B1E07859F70895E9B1E17039F715
:100A50000895E9B1E27019F70895E9B1E470F9F683
:100A60000895E9B1E870D9F60895E6B1E074B9F6F1
:100A70000895E6B1E07899F60895E9B1E07479F661
:100A80000895E9B1E07859F60895E3B1E07139F6D7
:100A90000895E3B1E07219F60895E3B1E07429F521
:100AA0000895EFB1E07809F50895EFB1E074E9F445
:100AB0000895EFB1E072C9F40895EFB1E071A9F4BF
:100AC0000895EFB1E27089F40895EFB1E17069F42F
:100AD0000895E9B1E07149F40895E9B1E07229F4AB
:100AE0000895ECB1E07409F40895E1E00895F894F4
:100AF00084B7877F84BF80916000806180936000AD
:100B00001092600080E29EE40197F1F781E080930B
:100B1000E00080E28093D80080E69AEE0197F1F73A
:100B200051DE0C94003FFFCFF8944CDE80E69AEE45
:100B30000197F1F70C940000FFCF8F938FB78F933D
:100B400080913E038D5F8D37D0F480933E0380917A
:100B50003F038F5F80933F03D8F0809140038F4F16
:100B600080934003A8F0809141038F4F809341030D
:100B700078F0809142038F4F8093420309C08D57D4
:100B800080933E0380913F038E5F80933F0328F75D
:100B9000809143038C5F8093430358F0809144031A
:100BA0008F4F8093440328F0809145038F4F8093AB
:100BB00045038F918FBF8F9118950F931F938B01D2
:100BC0009C0116D0AB01011511052105310569F015
:100BD0000FD0641B750B683E7340A8F301501109D8
:100BE0002109310948515C4FEECF1F910F910895B3
:100BF0000FB6F89466B515B2709143038091440323
:100C0000909145030FBE10FE05C06F3F19F07C5F49
:100C10008F4F9F4F11240024660F001C660F001C8D
:100C2000702908958091E80080FFFCCF089580919D
:100C3000D80087FF02C085FF56C081E08093D700AF
:100C400080EA8093D80082E189BD09B400FEFDCF1F
:100C500080E98093D8001092E00010927403109203
:100C600073031092720310926A0310926B03109236
:100C70006C0310926D0310926E0310926F0310922A
:100C800070031092710381E0809369039DE7909354
:100C900068031092670310926603109265038093B5
:100CA0006403109258031092590310925A03109241
:100CB0005B038FE080935C0390E290935D0380E898
:100CC00080935E0310925F0322E02093600328E08C
:100CD0002093610390936203809363031092E10079
:100CE0008CE08093E20008951F920F920FB60F924E
:100CF00011242F938F939F93EF93FF938091E100A3
:100D00001092E10083FF0FC01092E90091E09093F0
:100D1000EB001092EC0092E39093ED0098E090933A
:100D2000F0001092740382FF44C0909174039923E1
:100D300009F43FC090917203992391F091509093E0
:100D4000720391110DC091E09093E9009091E80039
:100D500095FF03C01092F100F9CF9AE39093E80059
:100D600090916803992329F1909147039F5F909395
:100D700047039370F1F493E09093E9009091E800B9
:100D800095FF17C0909167039F5F90936703209131
:100D9000680392130EC010926703EAE6F3E09191A4
:100DA0009093F10093E0E237F907C9F79AE3909343
:100DB000E80080FF0CC090E19093E2001092740371
:100DC00091E09093730390EA9093D80019BC9091AE
:100DD0007303992379F084FF0DC082E189BD09B4C2
:100DE00000FEFDCF80E98093D8008DE08093E20083
:100DF00010927303FF91EF919F918F912F910F901C
:100E00000FBE0F901F9018951F920F920FB60F9262
:100E10001124EF92FF920F931F932F933F934F93C1
:100E20005F936F937F938F939F93AF93BF93EF9352
:100E3000FF93CF93DF931F92CDB7DEB71092E900F7
:100E40008091E80083FFA4C13091F1002091F1006E
:100E50000091F1001091F100E090F100F090F100AC
:100E60008091F1009091F10042EF4093E80026302C
:100E700009F03FC04CE0E6EFF0E0259135912017F6
:100E8000310711F0359615C0259135912E153F0586
:100E900011F033960EC02591359144918F3F910505
:100EA00019F010F08FEF90E0841708F4482F5EEFF0
:100EB00008C0415011F76CC1481B5093E80044230F
:100EC000A9F08091E800982F9570D9F382FD63C155
:100ED000842F413408F080E4982F992369F3F901B5
:100EE00025912093F1009F019150F7CF803449F371
:100EF00052C1253041F48EEF8093E80093DE006804
:100F00000093E30048C12930F1F431113AC0009355
:100F10007403109272038EEF8093E80081E0E2E1A7
:100F2000F3E08093E90095919093EB00992331F0E1
:100F300095919093EC0095919093ED008F5F8730A1
:100F400081F78EE141C0283039F4303809F041C0D2
:100F500069DE8091740394C0211113C0398362DE6D
:100F60003981323851F4E092E9008091EB0085FB41
:100F7000882780F91092E90001C080E08093F10099
:100F800076C0422F4D7F413021F5323011F50115E9
:100F9000110509F081C04E2D4F775FEF540F573088
:100FA00008F07AC08EEF8093E8004093E900233088
:100FB00009F4EEC089E18093EB0081E090E0042E1B
:100FC00001C0880F0A94EAF78093EA001092EA00C1
:100FD000E2C0E114F104D1F5313AD1F4213059F4F1
:100FE00021DEEAE6F3E081918093F10023E0E2372D
:100FF000F207C9F76EC0223021F414DE8091680335
:101000003FC0233009F0C4C00DDE8091690338C0B1
:10101000313209F0B4C0293061F48091E80082FFD8
:10102000FCCF8091F100809366038BEF8093E80002
:1010300050C02A3029F4109368031092670349C006
:101040002B3009F0A5C00093690343C041E0E416CA
:10105000F10459F5313AB9F4213061F4E3DD8091BE
:1010600065038093F1001092F1001092F10010924C
:10107000F1002FC0233009F08BC0D4DD80916403D0
:101080008093F10026C0313209F079C02B3009F08D
:101090007FC0009364031DC0E114F10409F46FC024
:1010A000F1E0EF16F10409F46AC0E3E0EE16F10492
:1010B000A1F4313A09F063C0213009F069C0B2DD12
:1010C000E8E5F3E081918093F10023E0E436F20754
:1010D000C9F78EEF8093E8005EC042E0E416F104A9
:1010E00009F04DC02130F1F4313A09F051C03EEF22
:1010F0009091E800292F2570D9F392FD4CC0982FCC
:10110000813408F090E4292F222321F01092F1007D
:101110002150FACF891B3093E8008111E9CF903438
:1011200039F339C0293059F5313291F501151340A1
:1011300079F5049769F58091E80082FFFCCF309142
:10114000F1002091F1009091F1008091F1004BEFBE
:101150004093E8004EEF4093E800393A39F42534E3
:10116000B9F4923CA9F48B3699F4C1DC3B3881F494
:10117000253C71F49D3161F4803751F408C0293C5D
:1011800039F4303429F48EEF8093E8004BDDCCDC69
:1011900081E28093EB000F90DF91CF91FF91EF916F
:1011A000BF91AF919F918F917F916F915F914F917F
:1011B0003F912F911F910F91FF90EF900F900FBED5
:1011C0000F901F901895CF92DF92EF92FF920F939E
:1011D0001F93CF93DF936C017A01EB01E60EF71EAC
:1011E00000E010E0CE15DF0561F06991D601ED91C8
:1011F000FC910190F081E02DC6010995080F191F9F
:10120000F1CFC801DF91CF911F910F91FF90EF9027
:10121000DF90CF900895CF93DF9300D0CDB7DEB7A6
:101220002DE029832AE02A83DC01ED91FC910280E4
:10123000F381E02D42E050E0BE016F5F7F4F0995E2
:101240000F900F90DF91CF910895CF93DF93CDB79B
:10125000DEB72B970FB6F894DEBF0FBECDBFDE0111
:101260001C96E3E34E9F44270E0E411D302D5E9FDA
:101270005527400D511D6E9F6627500D611D7E9FA5
:101280007727600D711D1124340F451F561F671FEE
:10129000711D350F461F571F611D711D370F411DF1
:1012A000511D611D711D7695679557954795379529
:1012B000EAE03E9F312D1124305D3E9341155105EA
:1012C0006105710509F0CDCF222321F01197FD01B1
:1012D0002DE22083FC0120813181AE014A1B5B0B92
:1012E000445F5F4FF90122813381BD01F901099506
:1012F0002B960FB6F894DEBF0FBECDBFDF91CF9116
:10130000089577FF09C070956095509541955F4F9E
:101310006F4F7F4F21E001C020E097CF74DA6AD889
:10132000DED9FECF80917403882371F08FB7F894D3
:1013300092E09093E9002BE69091E80095FF03C0BE
:101340002093E800F9CF8FBF1092570308952091A2
:101350007403222371F12FB7F89431E03093E90040
:101360003091E400375E41E05091E80055FD0EC039
:101370002FBF2091E4002317E1F020917403222372
:10138000C1F02FB7F8944093E900EECF6093F100DD
:101390008091E80085FD06C08AE38093E800109202
:1013A000720303C084E0809372032FBF81E090E05A
:1013B000089521E0FC01228380E090E008956032EE
:1013C000710528F46A30710551F488E20895603897
:1013D000710528F4FB01EE5FFC4F8491089580E0D5
:1013E000089560936A03089560936C030895809153
:1013F0007403882309F441C08FB7F89493E0909365
:10140000E9009091E4009E5C23E03091E80035FD16
:101410000EC08FBF80917403882379F18091E4001E
:10142000891759F18FB7F8942093E900EECF909186
:101430006A039093F10090916B039093F100909167
:101440006C039093F10090916D039093F100909153
:101450006E039093F10090916F039093F10090913F
:1014600070039093F100909171039093F1009AE3CF
:101470009093E800109267038FBF0895CF93DF9396
:10148000EC0166FD02C080E001C082E080936A0347
:1014900010926B036F7360936C0310926D03109244
:1014A0006E0310926F031092700310927103CE01BD
:1014B0009EDF10926A0310926C03CE01DF91CF91F0
:1014C00096CF6111DBCF0895CF93DF93EC0167FDD9
:1014D00003C01B8270E00BC0603CE0F4862F8F736A
:1014E0009B81913051F41B826C817D81682BCE01F0
:1014F00066DF682FCE01E5DF22C0923001F590E46F
:10150000899FB00111248C819D81862B972B9D830F
:101510008C8309C0603E48F46F7180E4689FB0011D
:1015200011247D836C8381E009C0603F30F46295B3
:10153000607F1C826D8382E001C08FEF8B8381E02E
:1015400090E0DF91CF91089572DB0FB6F89480910F
:101550003F0390914003A0914103B09142030FBE1D
:101560009C0180917403882329F068EC70E080E08E
:1015700090E023CB80917303882309F10FB6F89490
:1015800080913F0390914003A0914103B0914203A9
:101590000FBEAC0180917303882389F00FB6F894D5
:1015A00080913F0390914003A0914103B091420389
:1015B0000FBE841B950B8B3F910560F311C00FB6D6
:1015C000F89480913F0390914003A0914103B09122
:1015D00042030FBE821B930B853C994008F4C1CF98
:1015E00008959FB7F894809174038823C9F082E02E
:1015F0008093E9002BE68091E80085FD03C09FBF42
:1016000080E008958091F100811103C02093E800EB
:10161000F2CF2091E80025FD03C02BE62093E800DF
:101620009FBF089520915703211109C0DADF882355
:1016300019F08093570303C080E090E0089581E0A3
:1016400090E0089520915703222321F01092570330
:10165000822F03C0C6DF882311F090E008958FEF3A
:101660009FEF089520915703222311F0822F05C088
:10167000B8DF882321F08093570390E008958FEF1F
:101680009FEF0895EFE4F3E088E0DF011D928A9573
:10169000E9F788EE93E0A0E0B0E0809352039093E6
:1016A0005303A0935403B09355038AE991E09183C7
:1016B0008083E9E4F3E086E0DF011D928A95E9F793
:1016C00082E991E091838083109248030895EE0FA0
:0E16D000FF1F0590F491E02D0994F894FFCFD0
:1016DE0005000000426567696E00200010000F00D3
:1016EE000E000D000C0004000300020001000000BB
:1016FE001500140013001200110014401A40084087
:10170E00154017401C4018400C4012401340044036
:10171E001640074009400A400B400D400E400F4056
:10172E0033401D401B4006401940054011401040FB
:10173E0036403740384029402B40088002802A40EE
:10174E002C40FC002D4038402840000000000000D6
:10175E000000018004800000000000000000000076
:10176E000000640AE30800000000A709E308120B5A
:06177E00220B320B920960
:00000001FF
